:0400000016EF08F0FF
:10100000004C6F61646564204469652E4320202094
:1010100020200000000052423020746F20726F6C5C
:101020006C2020202020200000000000926A0F0E7B
:10103000936E946E956A966A0F0EC16E0EEC0AF06E
:10104000000E086AD6EC09F0046A056A0450010F24
:1010500004EC0AF054EC0AF0044A052AFFEC09F00B
:10106000F5E3086A010ED6EC09F0046A056A04503B
:10107000160F04EC0AF054EC0AF0044A052AFFECBF
:1010800009F0F5E3F40E0A6E010E0B6E40EC0AF067
:10109000C00E94129D989D9AAC94B886AC98AF6897
:1010A000220EAC6E900EAB6E81B018D0FDD7022828
:1010B000066E000E0320076E070E0614026E036A0A
:1010C0006F0E0A6E0B6A0028086E000E0120096E72
:1010D000A6EC09F008C000F009C001F081B0E7D724
:1010E000024A032A0150800A800F140ED8B4005C13
:1010F000080E02E2026E036A086E010ED6EC09F0D9
:10110000000E0D6A0C6A02C008F003C009F009BEA7
:10111000FF0E0A6E0B6E9BEC08F0ACA2FED70250DD
:10112000300FAD6EACA2FED70D0EAD6EACA2FED7E9
:101130000A0EAD6EB9D70BAE0CD02D0E54EC0AF0E2
:101140000B1E0A1E091E086C000E09220A220B2221
:1011500003D0200E54EC0AF0D96A0A0E1D6E000E60
:101160001E6A1F6A206A08C019F009C01AF00AC076
:101170001BF00BC01CF05CEC09F00E0ED924E96EDC
:10118000EA6A000EEA2219C0EFFF0A0E1D6E000E79
:101190001E6A1F6A206A08C019F009C01AF00AC046
:1011A0001BF00BC01CF0FEEC08F019C008F01AC0D0
:1011B00009F01BC00AF01CC00BF0D92A090ED96433
:1011C000CCD70CC0F4FFF46601D0090C0D50F462CA
:1011D00003D02E0E54EC0AF0F4CF18F0FF0E1826B0
:1011E0000E0E1824E96EEA6A000EEA22EF50300F64
:1011F00054EC0AF0F406F466E9D71200F36A20AE64
:101200000AD0201E1F1E1E1E1D6C000E1E221F2235
:101210002022010EF36E1CAE0AD01C1E1B1E1A1ECD
:10122000196C000E1A221B221C22010EF31A216ACD
:10123000226A236A246A20501D101E101F1029E004
:10124000010EE96ED89020BE07D01D361E361F361F
:101250002036E92AF7D7D89021362236233624368D
:101260001D50195C1E501A581F501B5820501C58F6
:1012700009E31D50195E1E501A5A1F501B5A205068
:101280001C5A2180D89020321F321E321D32E92E86
:10129000E2D7F35008E0241E231E221E216C000E0C
:1012A00022222322242221C019F022C01AF023C0B6
:1012B0001BF024C01CF01200F36A1CAE0AD01C1EE6
:1012C0001B1E1A1E196C000E1A221B221C22010E54
:1012D000F36E20AE08D0201E1F1E1E1E1D6C000EB9
:1012E0001E221F22202220501D101E101F1023E03E
:1012F000010EE96E20BE07D0D8901D361E361F366F
:101300002036E92AF7D71D50195C1E501A581F5075
:101310001B5820501C5808E31D50195E1E501A5AC5
:101320001F501B5A20501C5AD89020321F321E3298
:101330001D32E92EE8D7F35008E01C1E1B1E1A1EB2
:10134000196C000E1A221B221C221200E96A09AE37
:1013500006D0086C091ED8B0092A010EE96E0BAE42
:1013600004D00A6C0B1ED8B00B2A0B500A1017E0E1
:10137000010ED96E0BBE05D0D8900A360B36D92A8D
:10138000F9D70A50085C0B50095804E30A50085E6C
:101390000B50095AD8900B320A32D92EF2D7E950A5
:1013A00004E0086C091ED8B0092A1200E8CFD9FF62
:1013B000D96604D00850800F28EC0AF0D90404E163
:1013C0000850C00F28EC0AF0D950020A04E1085076
:1013D000940F28EC0AF0D950030AD8A41200085040
:1013E000D40F28EF0AF0091683500F0B0910836EF3
:1013F0001200191683500F0B1910836E1200140E71
:10140000045C000E05581200066E06C0F6FF100EB2
:10141000F76E000EF86E0800F5501200010E956E82
:101420008392330E28EC0AF0320E28EC0AF0280ED4
:1014300028EC0AF00E0E28EC0AF0010E28EC0AF057
:10144000060E28EC0AF0640E0A6E0B6A40EF0AF0F2
:10145000E8CFF3FF8394F3CF09F0F00EF3EC09F03B
:1014600067EC0AF0F3CF09F0093AF00E0916F3EC35
:1014700009F067EC0AF00A0E0A6E0B6A40EF0AF0F8
:10148000F36AF46A0A50F35C0B50F458D8B01200B7
:101490000C6A0D6A0C4A0D2A690E0C5C020E0D587E
:1014A000F9E3F34AF42AEED7E8CFF3FF8384F3CFCE
:1014B00019F0F00EF9EC09F067EC0AF0F3CF19F02F
:1014C000193AF00E1916F9EC09F067EF0AF0839655
:1014D00070EC0AF0838670EC0AF0839670EF0AF0E5
:0C14E000E96AE92A130EE964FCD7130C3A
:00000001FF
