:04080000A8EF08F065
:101000000000000000803FF0FFBEE2A93E8376BEF4
:10101000AE2B3E3CC3BDD2133D78D3BB0000170EB0
:101020001B6E000E1C6E100E196E000E1A6EF5EC83
:101030000BF0F36E176607D013C010F014C011F058
:1010400015C012F01200160E1B6E000E1C6E130E51
:10105000196E000E1A6EF5EC0BF0F46E16506BE084
:10106000060ED96E1650176022D01750165C186EF7
:10107000190E185C08E3106A116A126A16C017F09C
:10108000F4CFF3FF34D0D890133614361536160645
:101090001650171808E0D92EF6D705D0D89012327E
:1010A00011321032172A16501762F8D720D0175075
:1010B00016181DE01650175C186E190E185C04E324
:1010C000136A146A156A13D0D89010361136123686
:1010D00017061650171808E0D92EF6D705D0D89065
:1010E000153214321332162A16501762F8D7F350FD
:1010F00007E0101E111E121E102A000E11221222CD
:10110000F45007E0131E141E151E132A000E14229D
:101110001522F36A13501026145011221550122272
:1011200012AE09D0101E111E121E102A000E11221E
:101130001222010EF36E17C01BF0100E196E000E76
:101140001A6E3CEC09F0F35002E0800E121A120005
:10115000AFEC0CF0C00E94129D989D9AAC84B886AA
:10116000AC98AF68220EAC6E900EAB6E92680F0E0C
:10117000966E850EC06E070EC16E010EC26E010E18
:10118000F8EC0CF00AC006F00BC007F006C00AF03D
:1011900007C00BF02CEC0CF00AC000F00BC001F003
:1011A0000CC002F000C00DF001C00EF002C00FF044
:1011B000C00E0A6E7F0E0B6E440E0C6EE1EC0CF04E
:1011C0000AC003F00BC004F00CC005F006C00AF022
:1011D00007C00BF02CEC0CF00AC00DF00BC00EF0A9
:1011E0000CC00FF003C00AF004C00BF005C00CF0F7
:1011F000C8EC0AF00AC00AF00BC00BF00CC00CF0EF
:101200000D6A7A0E0E6E440E0F6E1AEC0BF00AC0C9
:101210000AF00BC00BF00CC00CF0B1EC0BF00AC0E4
:1012200008F00BC009F00A6A010E92EC0CF00F6A8C
:10123000030E0E6E08C00AF009C00BF0000E0BBEC4
:10124000FF0E0C6E0D6E07EC0AF00F6A030E0E6EA9
:1012500008C00AF009C00BF0000E0BBEFF0E0C6EAA
:101260000D6EA2EC09F034EC0DF0640E0C6E000E65
:101270000D6A0DEC0DF083D71B5019C0E9FF08E093
:101280001AC0EAFFEE50EE10ED100BE119C0E9FFB5
:101290001AC0EAFFEE6AEE6AED6A000C1B2A61ECE6
:1012A0000CF019C0E9FF1AC0EAFFEE52EE52FE0E32
:1012B000ED140CE0F3D71B2A19C0E9FF1AC0EAFFAE
:1012C000EE2A000EEE22ED2261EC0CF019C0E9FFCF
:1012D0001AC0EAFFEE52EE52FF0EED140AE0EBD711
:1012E0001B0619C0E9FF1AC0EAFFD890EE36EE36A9
:1012F000ED3619C0E9FF1AC0EAFFEECF1CF0EECFC1
:101300001DF0EECF1EF01DAEEBD71BB00AD019C0FA
:10131000E9FF1AC0EAFFFF0EEE167F0EEE16FF0E73
:10132000ED16D8901B321B501E6E1D6A1C6A19C028
:10133000E9FF1AC0EAFF1C50EE121D50EE121E50BB
:10134000ED121200ACA2FED70DAE0BD02D0EAD6E7D
:101350000D1E0C1E0B1E0A6C000E0B220C220D2201
:1013600002D0200EAD6EF36A100EF324E96EEA6A25
:10137000000EEA220A0E1F6E000E206A216A226AFF
:101380000AC01BF00BC01CF00CC01DF00DC01EF0FD
:1013900067EC0BF01B50EF6E0A0E1F6E000E206AFA
:1013A000216A226A0AC01BF00BC01CF00CC01DF0A1
:1013B0000DC01EF06AEC0AF01BC00AF01CC00BF056
:1013C0001DC00CF01EC00DF0F32A090EF364CCD73B
:1013D0000EC0D9FFD96601D0090C0F50D96204D0D4
:1013E000ACA2FED72E0EAD6EACA2FED7D9CF1AF0AE
:1013F000FF0E1A26100E1A24E96EEA6A000EEA227F
:10140000EF50300FAD6ED906D966E7D712000DAE9A
:101410000CD02D0E21EC0DF00D1E0C1E0B1E0A6CB7
:10142000000E0B220C220D2203D0200E21EC0DF019
:10143000F46A100EF424E96EEA6A000EEA220A0E3B
:101440001F6E000E206A216A226A0AC01BF00BC0C0
:101450001CF00CC01DF00DC01EF067EC0BF01B5013
:10146000EF6E0A0E1F6E000E206A216A226A0AC001
:101470001BF00BC01CF00CC01DF00DC01EF06AEC80
:101480000AF01BC00AF01CC00BF01DC00CF01EC0FF
:101490000DF0F42A090EF464CCD70EC0F3FFF36606
:1014A00001D0090C0F50F36203D02E0E21EC0DF089
:1014B000F3CF1AF0FF0E1A26100E1A24E96EEA6A0C
:1014C000000EEA22EF50300F21EC0DF0F306F36628
:1014D000E9D71200E16A22AE0AD0221E211E201E88
:1014E0001F6C000E202221222222010EE16E1EAE70
:1014F0000AD01E1E1D1E1C1E1B6C000E1C221D224F
:101500001E22010EE11A236A246A256A266A2250E5
:101510001F102010211029E0010ED96ED89022BE94
:1015200007D01F36203621362236D92AF7D7D89051
:1015300023362436253626361F501B5C20501C5877
:1015400021501D5822501E5809E31F501B5E205089
:101550001C5A21501D5A22501E5A2380D8902232E4
:10156000213220321F32D92EE2D7E15008E0261E68
:10157000251E241E236C000E24222522262223C091
:101580001BF024C01CF025C01DF026C01EF0120068
:10159000126A136A146A110E1B6E000E1C6E0A0E7C
:1015A000196E000E1A6EF5EC0BF0F36E116602D098
:1015B0007DEF0CF0100E1B6E000E1C6E0D0E196EE2
:1015C000000E1A6EF5EC0BF0F46E106602D07DEF93
:1015D0000CF01050890F115EF450F31A180ED96EEA
:1015E000D8901236133614360D500A5C0E500B5834
:1015F0000F500C5807E30D500A5E0E500B5A0F5057
:101600000C5A1280D8900A360B360C36D92EE8D7F1
:1016100011C01BF0120E196E000E1A6E3CEC09F090
:10162000F350D8A4148E12C00AF013C00BF014C0EB
:101630000CF01200126A136A146A100E1B6E000E70
:101640001C6E0A0E196E000E1A6EF5EC0BF0F36E9E
:10165000110E1B6E000E1C6E0D0E196E000E1A6E12
:10166000F5EC0BF0F31A115002E0106602D08BEF8C
:101670000CF011507B0F1026070E116E0AB084EC8F
:101680000CF0D8900C320B320A32D8900D360E3650
:101690000F36112EF3D7090E116E0AB084EC0CF040
:1016A000D8900C320B320A32D890143213321232E4
:1016B000112EF3D710C01BF0120E196E000E1A6E09
:1016C0003CEC09F0F350D8A4148E8BEF0CF0E16AD7
:1016D0001EAE0AD01E1E1D1E1C1E1B6C000E1C22E0
:1016E0001D221E22010EE16E22AE08D0221E211EF6
:1016F000201E1F6C000E20222122222222501F10A9
:101700002010211023E0010ED96E22BE07D0D89000
:101710001F36203621362236D92AF7D71F501B5CB8
:1017200020501C5821501D5822501E5808E31F50AD
:101730001B5E20501C5A21501D5A22501E5AD89010
:101740002232213220321F32D92EE8D7E15008E070
:101750001E1E1D1E1C1E1B6C000E1C221D221E2286
:1017600012000E0E1B6E000E1C6E0A0E196E000E7D
:101770001A6EF5EC0BF0F36E0A500F6E0B50106EF4
:101780000C50116E126A8E0E0E5E0EAE0ED00E5002
:10179000800A8F0F02E278EF0CF0D89012321132EB
:1017A00010320F320E3EF9D70DD01F0E0E6408D046
:1017B00078EF0CF0D8900F361036113612360E0630
:1017C0000E66F8D7F35008E0121E111E101E0F6CA3
:1017D000000E1022112212220FC00AF010C00BF0CE
:1017E00011C00CF012C00DF0120019C0E9FF1AC0B0
:1017F000EAFF010EEB34020EEB34E16E1BC0E9FF91
:101800001CC0EAFFE1CFEFFFE16608D019C0E9FF95
:101810001AC0EAFFEE6AEE6AED6A000CD96A19C0D6
:10182000E9FF1AC0EAFF010EEB8E19C0E9FF1AC0EA
:10183000EAFFEECF1DF0EECF1EF0EECF1FF01FBE81
:10184000D92A19C0E9FF1AC0EAFFFF0EEE16EE16FC
:10185000000EED16D95012000B500A1004E10A6A6E
:101860000B6A0C6A12000AC00DF00BC00EF00F6A72
:101870000EBE0F060BAE06D00F1E0E1E0D6C000E18
:101880000E220F228E0E1B6E0D0E196E000E1A6E9A
:101890003CEC09F00BAE0ED00DC010F00EC011F0F4
:1018A0000FC012F046EC0DF010C00DF011C00EF09C
:1018B00012C00FF00DC00AF00EC00BF00FC00CF0FC
:1018C000120019C0E9FF1AC0EAFFEC52EC52D8909E
:1018D000ED32ED32EF3212000B1683500F0B0B106E
:1018E000836E12001B1683500F0B1B10836E1200A9
:1018F0000A6A0B6A0C6A0D6A120012C00AF013C061
:101900000BF014C00CF012000D5012260E501322D2
:101910000F501422120012C00AF013C00BF014C0B2
:101920000CF01200E8CFE9FFE96604D00A50800FFE
:10193000C9EC0CF0E90404E10A50C00FC9EC0CF04A
:10194000E950020A04E10A50940FC9EC0CF0E95086
:10195000030AD8A412000A50D40FC9EF0CF0010EEC
:10196000956E8392330EC9EC0CF0320EC9EC0CF07C
:10197000280EC9EC0CF00E0EC9EC0CF0010EC9ECEF
:101980000CF0060EC9EC0CF0640E0C6E0D6A0DEF37
:101990000DF0E8CFE1FF8394E1CF0BF0F00E6CEC9B
:1019A0000CF03DEC0DF0E1CF0BF00B3AF00E0B1606
:1019B0006CEC0CF03DEC0DF00A0E0C6E0D6A0DEFA8
:1019C0000DF0800E0F1A0DC013F00EC014F00FC0F2
:1019D00015F00AC010F00BC011F00CC012F00FECA3
:1019E00008F010C00AF011C00BF012C00CF0120089
:1019F000E8CFE1FF0F0EE116E150040DF328C26EAF
:101A0000D96AD92A130ED964FCD7C282C2B2FED7D2
:101A1000C3CF0AF0C4CF0BF01200F36AF46A0C5083
:101A2000F35C0D50F458D8B012000E6A0F6A0E4ADB
:101A30000F2A690E0E5C020E0F58F9E3F34AF42ADE
:101A4000EED7E8CFE1FF8384E1CF1BF0F00E72EC1C
:101A50000CF03DEC0DF0E1CF1BF01B3AF00E1B1625
:101A600072EC0CF03DEF0DF0ACA2FED70D0EAD6E9A
:101A7000ACA2FED70A0EAD6E0A0C83964DEC0DF0AB
:101A800083864DEC0DF083964DEF0DF01050111044
:101A9000121002E0800E121A1200D96AD92A130E0F
:061AA000D964FCD7130C11
:00000001FF
